:100000000C94A0000C94C8000C94C8000C94C80078
:100010000C94C8000C94C8000C94C8000C94C80040
:100020000C94C8000C94C8000C94C8000C94C80030
:100030000C94C8000C94C8000C94C8000C94C80020
:100040000C94FE060C94C8000C94CE020C94A802EA
:100050000C94C8000C94C8000C94C8000C94C80000
:100060000C94F2070C94C80020446F6E65002E00BB
:10007000202D2053656E736F7273202844533138DE
:1000800042323029200020446F6E65002E002E0081
:10009000202D204C43442028323078342920002061
:1000A000446F6E65002E00202D20492F4F2050698F
:1000B0006E732028427574746F6E732900496E69DF
:1000C0007469616C697A696E6720000A4C43442048
:1000D00054656D706572617475726520436F6E74DE
:1000E000726F6C6C65722076312E30612032303246
:1000F00032313131360A0A000000000025002800A4
:100100002B00040404040404040402020202020298
:1001100003030303030301020408102040800102CB
:10012000040810200102040810200000000800024A
:1001300001000003040700000000000000004E0D55
:1001400011241FBECFEFD8E0DEBFCDBF24E0A6E272
:10015000B2E001C01D92A030B207E1F712E0A0E0CA
:10016000B1E0E4EBFBE102C005900D92A632B107CD
:10017000D9F710E0C0EAD0E004C02197FE010E9448
:10018000CD0DCF39D107C9F70E94840B0C94D80D3F
:100190000C940000FC01538D448D252F30E0842FFA
:1001A00090E0821B930B541710F0CF96089501979F
:1001B0000895FC01918D828D981761F0828DDF0189
:1001C000A80FB11D5D968C91928D9F5F9F73928F4A
:1001D00090E008958FEF9FEF0895FC01918D828D3F
:1001E000981731F0828DE80FF11D858D90E008950C
:1001F0008FEF9FEF0895FC01918D228D892F90E064
:10020000805C9F4F821B91098F739927089583EE1D
:1002100092E00E94FB0021E0892B09F420E0822F6C
:100220000895FC01848DDF01A80FB11DA35ABF4FB3
:100230002C91848D90E001968F739927848FA689E5
:10024000B7892C93A089B1898C91837080648C9339
:10025000938D848D981306C00288F389E02D8081E8
:100260008F7D80830895EF92FF920F931F93CF931A
:10027000DF93EC0181E0888F9B8D8C8D981305C0F6
:10028000E889F989808185FD26C0F62E0B8D10E066
:100290000F5F1F4F0F731127E02E8C8DE8120CC0DB
:1002A0000FB607FCFACFE889F989808185FFF5CF81
:1002B000CE010E941101F1CF8B8DFE01E80FF11DDF
:1002C000E35AFF4FF0829FB7F8940B8FEA89FB89BE
:1002D000808180620AC09FB7F894EE89FF896083AD
:1002E000E889F98980818370806480839FBF81E081
:1002F00090E0DF91CF911F910F91FF90EF900895C3
:10030000CF93DF93EC01888D8823C9F0EA89FB89BC
:10031000808185FD05C0A889B9898C9186FD0FC0B3
:100320000FB607FCF5CF808185FFF2CFA889B98988
:100330008C9185FFEDCFCE010E941101E7CFDF91B7
:10034000CF91089580E090E0892B29F00E94070169
:1003500081110C94000008958DEF9FEF08958DEFAB
:100360009FEF089580E090E0089585ED8093BC00B4
:100370008091BC0084FDFCCF1092BF020895409193
:100380004902262F30E0240F311D21323105DCF4E3
:100390002091BF022430C9F4FC0180E090E0861770
:1003A00058F4309149022191DC01A95DBD4FA30FA2
:1003B000B11D2C930196F3CF80914902680F609391
:1003C000490280E0089581E0089582E0089508954B
:1003D0000895E091740280917302E81730F4F0E020
:1003E000EB58FD4F808190E008958FEF9FEF0895C7
:1003F0009091740280917302981750F4E92FF0E005
:10040000EB58FD4F208130E09F5F9093740202C053
:100410002FEF3FEFC90108958091730290E0209182
:100420007402821B91090895CF92DF92EF92FF929E
:100430000F931F93CF93DF937C01CB018A0120910F
:10044000C002222389F0EB016B01C40ED51ECC152E
:10045000DD0569F06991D701ED91FC910190F08182
:10046000E02DC7010995F3CF642F0E94BF01C80199
:10047000DF91CF911F910F91FF90EF90DF90CF9080
:100480000895CF93DF931F92CDB7DEB76983209194
:10049000C0022223D1F02091E202203240F021E07C
:1004A00030E0FC013383228380E090E015C080912E
:1004B000C102E82FF0E0EE53FD4F998190838F5FEA
:1004C0008093C1028093E20205C061E0CE010196F3
:1004D0000E94BF0181E090E00F90DF91CF910895DD
:1004E00008950E94D30DCF93DF93FC0182A588234A
:1004F00049F193A5662319F0913029F402C09111B6
:1005000002C084A701C014A6EF0180A10E94BB090C
:1005100089A19AA1029721F489E090E00E94ED0957
:100520006CA580E893E00E9441020E945F0921E0EF
:1005300030E0811102C020E030E088279927821B3B
:10054000930B02C08DEF9FEFDF91CF910895089537
:100550001F920F920FB60F9211242F933F934F9338
:100560005F936F937F938F939F93AF93BF93EF931B
:10057000FF9383EE92E00E941101FF91EF91BF91F2
:10058000AF919F918F917F916F915F914F913F912B
:100590002F910F900FBE0F901F9018951F920F92E2
:1005A0000FB60F9211242F938F939F93EF93FF9386
:1005B000E091F302F091F4028081E091F902F09170
:1005C000FA0282FD12C090818091FC028F5F8F73CE
:1005D0002091FD02821751F0E091FC02F0E0ED5114
:1005E000FD4F958F8093FC0201C08081FF91EF91B8
:1005F0009F918F912F910F900FBE0F901F90189584
:100600003FB7F89480916F0290917002A0917102AF
:10061000B091720226B5A89B05C02F3F19F0019634
:10062000A11DB11D3FBFBA2FA92F982F8827820F78
:10063000911DA11DB11DBC01CD0142E0660F771FC8
:10064000881F991F4A95D1F708958F929F92AF9274
:10065000BF92CF92DF92EF92FF926B017C010E94DA
:1006600000034B015C01C114D104E104F104F1F079
:100670000E940003DC01CB0188199909AA09BB0972
:10068000883E9340A105B10570F321E0C21AD1085C
:10069000E108F10888EE880E83E0981EA11CB11CC9
:1006A000C114D104E104F10419F7DDCFFF90EF90FC
:1006B000DF90CF90BF90AF909F908F9008950F9351
:1006C0001F93CF93DF93182FD0E0C0E28C2F0E94AE
:1006D000BB090E945F09082F61E070E080E090E0B4
:1006E0000E942503011103C01D17D9F0DF5FCF5F02
:1006F000C83261F7C8E38C2F0E94BB090E945F09D2
:10070000082F61E070E080E090E00E942503011175
:1007100003C01D1731F0DF5FCF5FC03461F780E0A9
:1007200001C08C2FDF91CF911F910F9108950F93EE
:100730001F93CF93DF93EC01109274021092730217
:100740001092C1021092E2021092BF0281E08093E7
:10075000BE021092990282E10E943C0B83E10E944A
:100760003C0B8091B9008E7F8093B9008091B900D5
:100770008D7F8093B90088E48093B80085E48093EE
:10078000BC0087EE91E0909348028093470288EE88
:1007900091E090934C0280934B0288A181110AC092
:1007A0008091260291E0980F909326020E945F03A9
:1007B00088A309C00E94BB090E945F09882319F021
:1007C0008CEF9FEFA9C188A1811109C080912602F9
:1007D00091E0980F909326020E945F0388A318A1CE
:1007E000112371F389A19AA1892B09F05AC1812F94
:1007F0000E94BB0960E080E893E00E9441026FEF35
:1008000080E893E00E9441020E945F09812F0E94CC
:10081000BB0960E080E893E00E9441020E945F090A
:10082000812F90E00E94F50A80E893E00E94F80191
:100830008F3F910541F031E020E0892B09F030E055
:10084000832F922F02C082E090E09AA389A30097A1
:1008500009F424C1019709F0A5C088A10E94BB0931
:100860006FEF80E893E00E9441020E945F0988A137
:1008700090E00E94F50A80E893E00E94F8018C0164
:1008800088A10E94BB096BEF80E893E00E944102BF
:100890000E945F0988A190E00E94F50A80E893E039
:1008A0000E94F80198012770332727303105B1F4F1
:1008B000807F9927803F910589F483E016950795FD
:1008C0008A95E1F761E00627017043E057E066E0B2
:1008D00075E0E4E022E0F1E030E02CC0C801807770
:1008E00099278037910509F015C188A10E94BB099D
:1008F0006FEE80E893E00E9441020E945F0988A1A8
:1009000090E00E94F50A80E893E00E94F8018F7061
:1009100099270F9719F026E034E002C024E036E072
:100920000095001F0027001F47E053E062E071E0E0
:10093000E0E0F5E081E090E0DC0101C0AA0F3A952B
:10094000EAF7ABA3DC0101C0AA0FFA95EAF7ACA362
:10095000DC0102C0AA0FBB1F2A95E2F7ADA39C01E0
:1009600001C0220FEA95EAF72EA39C0101C0220FD5
:100970007A95EAF72FA39C0101C0220F6A95EAF746
:1009800028A79C0101C0220F5A95EAF729A701C0A8
:10099000880F4A95EAF78AA70BA7013009F47CC0B3
:1009A0001CA67FC088A10E94BB0960E080E893E09C
:1009B0000E9441028FEF90E00E94ED090E945F09C2
:1009C00088A10E94BB0986E090E00E94ED098FE7B4
:1009D00090E00E94ED090E945F0988A10E94BB0976
:1009E00089E090E00E94ED090E945F0988A190E0F3
:1009F0000E94F50A80E893E00E94F8018F3761F0C9
:100A000086FF12C081FD86C021E032E043E054E061
:100A100065E076E0E7E00FC027E036E045E054E02F
:100A200063E072E0E1E007C026E033E042E051E03D
:100A300060E077E0E4E081E090E0DC0102C0AA0F32
:100A4000BB1FEA95E2F7ABA31CA2FC0101C0EE0FAD
:100A50007A95EAF7EDA3FC0102C0EE0FFF1F6A953D
:100A6000E2F7EEA3BC0101C0660F5A95EAF76FA347
:100A7000BC0102C0660F771F4A95E2F768A7AC0178
:100A800001C0440F3A95EAF749A701C0880F2A959B
:100A9000EAF78AA791E09BA78CA703C08FEF9FEF8F
:100AA0003BC088A10E94BB0989A19AA1029701F5C8
:100AB00085E090E00E94ED0980E290E00E94ED095F
:100AC0000E945F0988A10E94BB0960E080E893E072
:100AD0000E94410260E080E893E00E9441020E948F
:100AE0005F0988A10E94BB0989E090E00E94ED099E
:100AF00060E080E893E00E9441020E945F0921E0EB
:100B000030E0811102C020E030E088279927821B65
:100B1000930B02C08DEF9FEFDF91CF911F910F914B
:100B200008954F925F926F927F928F929F92AF92B1
:100B3000BF92EF92FF920F931F93CF93DF93EC013D
:100B40001CA588A1882309F4D4C089A19AA1009783
:100B500009F4CFC0029709F4CFC08CA1882309F40F
:100B6000CBC07B014C8C5D8C6E8C7F8C888C998C7F
:100B7000AA8CBB8C8DE2881A9108A108B1080E944A
:100B80000003DC01CB0188199909AA09BB09841566
:100B90009505A605B70598F38EA1182B8FA1182BE4
:100BA00088A5182B89A5182BEA94EF2811F48BA19E
:100BB000182B8CA1182B88A10E94BB09612F80E8FB
:100BC00093E00E9441020E945F09882319F00FEF11
:100BD0001FEF81C088A10E94BB098DA1812B90E0ED
:100BE0000E94ED090E945F098111F1CF88A190E078
:100BF0000E94F50A80E893E00E94F8017C0197FDCD
:100C0000E6CF88A10E94BB09612F80E893E00E9493
:100C100041020E945F098111DACF8EA190E08E21FE
:100C20009F21892B11F400E001C000E18FA190E029
:100C30008E219F21892B09F0006288A590E08E21EA
:100C40009F21892B09F0006489A590E0E822F92210
:100C5000EF2809F0006888A10E94BB098DA1812BB3
:100C600090E00E94ED090E945F098111B0CF88A138
:100C700090E00E94F50A80E893E00E94F8017C0170
:100C800097FDA5CF88A10E94BB09612F80E893E062
:100C90000E9441020E945F09811199CF8EA190E0CC
:100CA0008E219F21892B09F001608FA190E08E2178
:100CB0009F21892B09F0026088A590E08E219F2159
:100CC000892B09F0046089A590E0E822F922EF2839
:100CD00009F0086010E088A10E94BB096CA580E8BB
:100CE00093E00E9441020E945F09882339F08FEF50
:100CF00001C08CEF9FEF03C08DEFFCCFC801DF91E7
:100D0000CF911F910F91FF90EF90BF90AF909F9068
:100D10008F907F906F905F904F9008954F925F9269
:100D20006F927F928F929F92AF92BF92EF92FF92BB
:100D30001F93CF93DF93EC0188A1882309F44EC061
:100D400089A19AA1892B09F449C0142F7B014C8CED
:100D50005D8C6E8C7F8C888C998CAA8CBB8C8DE280
:100D6000881A9108A108B1080E940003DC01CB0198
:100D700088199909AA09BB0984159505A605B7051F
:100D800098F388A10E94BB0989A19AA1029721F436
:100D900089E090E00E94ED09612F70E084E0759594
:100DA00067958A95E1F7A701CE010E94D20A82E0F9
:100DB000E816F10431F0612F6F70A701CE010E9497
:100DC000D20A0E945F0921E030E0811102C020E0D8
:100DD00030E088279927821B930B02C08CEF9FEF8E
:100DE000DF91CF911F91FF90EF90BF90AF909F90B8
:100DF0008F907F906F905F904F9008951F920F9209
:100E00000FB60F9211242F933F938F939F93AF931D
:100E1000BF938091950290919602A0919702B09114
:100E2000980230916E0223E0230F2D3720F40196B3
:100E3000A11DB11D05C026E8230F0296A11DB11DFD
:100E400020936E028093950290939602A09397024E
:100E5000B093980280916F0290917002A0917102FC
:100E6000B09172020196A11DB11D80936F02909303
:100E70007002A0937102B0937202BF91AF919F91E3
:100E80008F913F912F910F900FBE0F901F9018954B
:100E9000CF92DF92EF92FF920F931F93CF93DF9346
:100EA000EC01462FE881F9810484F585E02D61E0AD
:100EB00070E009958C01CC88DD88EE88FF880E945F
:100EC0000003688F798F8A8F9B8FCC8EDD8EEE8E9C
:100ED000FF8E81E090E0012B11F080E090E0DF9147
:100EE000CF911F910F91FF90EF90DF90CF900895D9
:100EF0008F929F92AF92BF92EF92FF921F93CF93E8
:100F0000DF93EC01162FE881F9810484F585E02D4B
:100F1000462F60E070E009957C011150123038F4E2
:100F200019861A8688889988AA88BB8804C08C8804
:100F30009D88AE88BF880E940003688F798F8A8F52
:100F40009B8F8C8E9D8EAE8EBF8EC701DF91CF9111
:100F50001F91FF90EF90BF90AF909F908F9008955A
:100F6000FC018085481710F04FEF480F93859923B7
:100F700059F09781691730F0691B4F5F4817D0F31C
:100F800040E0F8CF61874287DF01A40FB11D1C96B6
:100F90008C91680F6068CF010C9478070F931F93B2
:100FA000CF93DF93EC010E9448078C018B85882347
:100FB00099F089858F5F89879F81891768F01986E5
:100FC0008A858F5F8A879885891708F01A864A85EF
:100FD00060E0CE010E94B007C801DF91CF911F9160
:100FE0000F9108951F920F920FB60F9211242F9315
:100FF0003F934F935F936F937F938F939F93AF93A1
:10100000BF93EF93FF938091B900887F803609F4F6
:101010009CC068F5883209F45BC090F4803109F413
:1010200054C038F4882309F4F6C0883009F44DC060
:10103000F6C0883109F44CC0803209F45DC0EFC0BD
:10104000803409F468C048F4803309F455C088330B
:1010500009F0E5C08093BD02D8C0803509F44FC0C7
:10106000883509F45DC0883409F0D9C0D6C0883904
:1010700009F4C7C0A8F4883709F467C038F4883683
:1010800009F463C0803709F460C0C9C0883809F426
:10109000B8C0803909F45FC0803809F0C0C05BC0B7
:1010A000803B09F486C038F4803A09F466C0883A77
:1010B00009F47FC0B4C0803C09F4A7C0883C09F49F
:1010C000A4C0883B09F48AC0AAC080919A0210C0CB
:1010D0009091BC028091BB02981770F5E091BC0220
:1010E00081E08E0F8093BC02F0E0E556FD4F8081D9
:1010F0008093BB0085EC86C08093BD028EC0E091DA
:10110000BC0281E08E0F8093BC028091BB00F0E0B6
:10111000E556FD4F80839091BC028091BB026EC06A
:10112000E091BC0281E08E0F8093BC028091BB00F5
:10113000F0E0E556FD4F80838091BE0281116DC0C5
:1011400081E08093990284EA61C083E08093BF02CA
:1011500010926D02CFCF80916D02803208F051C0A5
:10116000E0916D0281E08E0F80936D028091BB0053
:10117000F0E0E35BFD4F8083BDCF85EC8093BC0046
:101180001092BF0280916D02803230F4E0916D02C6
:10119000F0E0E35BFD4F108260916D0270E0E09142
:1011A0004B02F0914C028DE492E0099510926D0291
:1011B00036C084E08093BF0210924A021092490226
:1011C000E0914702F091480209958091490281110E
:1011D00005C081E08093490210922702E0914A0203
:1011E00081E08E0F80934A02F0E0E95DFD4F80813F
:1011F0008093BB0090914A0280914902981708F4AD
:1012000079CF85E88093BC000AC085EC8093BC0050
:101210001092BF0204C01092BD020E94B501FF915E
:10122000EF91BF91AF919F918F917F916F915F915E
:101230004F913F912F910F900FBE0F901F901895D7
:10124000CF92DF92EF92FF920F931F93CF93DF9392
:101250006C017A018B01C0E0D0E0CE15DF0581F092
:10126000D8016D918D01D601ED91FC910190F08135
:10127000E02DC6010995892B11F02196EECF7E0154
:10128000C701DF91CF911F910F91FF90EF90DF90F9
:10129000CF9008956115710579F0FB010190002050
:1012A000E9F73197AF01461B570BDC01ED91FC913B
:1012B0000280F381E02D099480E090E00895309160
:1012C000E202313208F04BC08091BF028111FCCFA5
:1012D0009091FF0322E02093BF0221E02093BE0201
:1012E0002FEF2093BD021092BC023093BB02E2ECC0
:1012F000F2E0ABE9B2E020E0321721F041914D93EA
:101300002F5FFACF10929A0220919A02990F922B96
:1013100090939A0290919902913061F410929902FF
:1013200090919A029093BB009091BC0093FDF8CFEE
:1013300095EC01C095EE9093BC009091BF02923065
:10134000E1F39091BD029F3F79F08091BD02803220
:1013500041F08091BD02803331F084E005C081E02E
:1013600003C082E001C083E01092C1021092E20249
:101370001092C002089591E09093C0028093FF0301
:101380001092C1021092E2020895E3EEF2E0A08909
:10139000B18982E08C93A485B5851C92A685B7851A
:1013A0008FEC8C93108EA489B58986E08C93A289EA
:1013B000B3898C9180618C93A289B3898C91886068
:1013C0008C93A289B3898C9180688C930288F3896D
:1013D000E02D80818F7D80830895682F80E893E0E1
:1013E0000C944102EF92FF920F931F93CF93DF93E0
:1013F0007B01C82FC77060E070E082ED93E00E942F
:10140000910597FD04C08C010F77112702C000E001
:1014100010E088E0C89FB0011124606482ED93E081
:101420000E9478070097E1F4E70188E0E80EF11CDC
:10143000699182ED93E00E944807019779F4CE15F7
:10144000DF05B1F740E0602F82ED93E0DF91CF91AF
:101450001F910F91FF90EF900C94B0078FEF9FEFCB
:10146000DF91CF911F910F91FF90EF9008950F930F
:101470001F93CF93DF938C01C0E0D0E0F801EC0F15
:10148000FD1F6491662341F083EE92E00E943301D8
:10149000892B11F02196F2CFCE01DF91CF911F91D0
:1014A0000F910895CF93DF930E94370AEC0163E216
:1014B00072E083EE92E00E944A098C0F9D1FDF913B
:1014C000CF910895CF92DF92EF92FF920F931F93E7
:1014D000CF93DF93482F62E070E082ED93E00E94AB
:1014E0008E068C01C2EDD3E0CC88DD88EE88FF88C3
:1014F0000E940003688F798F8A8F9B8FCC8EDD8E40
:10150000EE8EFF8EC801DF91CF911F910F91FF905A
:10151000EF90DF90CF900895CF93DF93BC0183EEDF
:1015200092E00E944A09EC0163E272E083EE92E0ED
:101530000E944A098C0F9D1FDF91CF910895CF9291
:10154000DF92EF92FF920F931F932FB7F894C09002
:101550009502D0909602E0909702F09098022FBFEB
:10156000DC01CB018C0D9D1DAE1DBF1D4FB7F89446
:101570000091950210919602209197023091980265
:101580004FBF0C151D052E053F0528F0801791074C
:10159000A207B30758F71F910F91FF90EF90DF90CC
:1015A000CF900895CF93FC01C4A560FF02C086A12F
:1015B000C82B61FF02C087A1C82B62FF02C080A5B3
:1015C000C82B63FF02C081A5C82B4130510511F41F
:1015D00083A1C82B85A18C2B90E00E94ED096C2F74
:1015E00080E893E0CF910C9441029091BF02911159
:1015F000FCCF91E09093BF029093BE022FEF209317
:10160000BD021092BC021092BB0290939A0290917C
:101610009A02880F892B80939A02809199028130D7
:1016200061F41092990280919A028093BB0080919C
:10163000BC0083FDF8CF85EC01C085EE8093BC0033
:101640008091BF028130E1F38091BC02811103C01F
:101650009091BC0201C091E0EBE9F2E0A5E7B2E0B5
:1016600080E0891721F021912D938F5FFACF10929E
:10167000740280937302089590E0FC01E65DFE4FD2
:101680002491FC01EA5EFE4F3491FC01EE5FFE4FB7
:10169000E491EE23B1F1222339F1233091F038F4B3
:1016A0002130A9F0223001F584B58F7D12C027309A
:1016B00091F02830A1F02430B9F4809180008F7D22
:1016C00003C0809180008F77809380000DC084B527
:1016D0008F7784BD09C08091B0008F7703C080915F
:1016E000B0008F7D8093B000F0E0EE0FFF1FE85058
:1016F000FF4FA591B4918FB7F894EC91E32BEC9345
:101700008FBF08950C944A09789484B5826084BD93
:1017100084B5816084BD85B5826085BD85B58160F5
:1017200085BD80916E00816080936E001092810073
:10173000809181008260809381008091810081602E
:1017400080938100809180008160809380008091EF
:10175000B10084608093B1008091B000816080937B
:10176000B00080917A00846080937A0080917A0042
:10177000826080937A0080917A00816080937A0001
:1017800080917A00806880937A001092C100109254
:10179000CE031092CF031092D0031092D103109277
:1017A0008E0310928F03109290031092910368EBB6
:1017B0007BE080E090E00E949F0A68EE73E080E0AA
:1017C00090E00E9425030E94C5092FB7F8948091EC
:1017D000950290919602A0919702B09198022FBF26
:1017E00080938E0390938F03A0939003B093910303
:1017F00060E871E083EE92E00E94820B6AE070E0A4
:1018000080E090E00E949F0A81E08093A2032FB7BE
:10181000F8948091950290919602A0919702B091D0
:1018200098022FBF80938E0390938F03A093900311
:10183000B093910361E971E083EE92E00E94820B24
:101840000E94C50964EF71E080E090E00E942503EA
:1018500068E971E083EE92E00E94820B83EA91E0F6
:101860000E948C0A62EF71E083EE92E00E94820B8C
:101870008DEF91E00E948C0A88E192E00E948C0A30
:101880008BEC90E00E94520A8DEB90E00E94520A8D
:1018900087EA90E00E94370A85EA90E00E94370AC2
:1018A0008FE990E00E94520A62E370E080E090E0ED
:1018B0000E94250380E990E00E94370A8091DE03B0
:1018C00081110CC08091DF03811108C08091E00379
:1018D000811104C08091E103882331F08091D90304
:1018E000882369F0843159F01092DE0380E48093FC
:1018F000DF0384E18093E00384E58093E10384E0E7
:101900008093DA0384E18093D90364E670E080E099
:1019100090E00E9425031092D60382ED93E00E948E
:101920009703892B09F04CC08091DA03823028F0AC
:101930008091D60388608093D60380E30E94620A78
:1019400065E070E080E090E00E94250380E30E9463
:10195000620A61E070E080E090E00E94250380E38D
:101960000E94620A61E070E080E090E00E9425033E
:101970008091D60384FD03C080E20E94620A6091D8
:10198000D603606282ED93E00E94780784E0809342
:10199000D7036CE082ED93E00E94780761E082ED6E
:1019A00093E00E94780782E08093D80366E082ED9E
:1019B00093E00E9478076FEF82ED93E00E9473023C
:1019C0008EE890E00E94370A68E271E080E00E94B1
:1019D000F20960E271E081E00E94F20968E171E0E1
:1019E00082E00E94F20960E171E083E00E94F20966
:1019F00068E071E084E00E94F20960E071E085E057
:101A00000E94F2098CE890E00E94370A61E082EDC2
:101A100093E00E94780786E890E00E94520A62E311
:101A200070E080E090E00E94250380E790E00E9453
:101A3000370A8EE690E00E94370A88E690E00E941E
:101A4000520A62E370E080E090E00E94250340E0EB
:101A500060E082ED93E00E94B00769E072E082ED01
:101A600093E00E94820B62E172E082ED93E00E94BB
:101A7000820B41E060E082ED93E00E94B0076AE1F2
:101A800072E082ED93E00E94820B62E172E082EDEF
:101A900093E00E94820B0E94A201D9CFCF93DF93E3
:101AA000E3EEF2E01382128288EE93E0A0E0B0E071
:101AB00084839583A683B78324E331E03183208335
:101AC00025EC30E03587248724EC30E03787268703
:101AD00020EC30E0318B208B21EC30E0338B228BFB
:101AE00022EC30E0358B248B26EC30E0378B268BD4
:101AF000118E128E138E148EE0E8F3E013821282A0
:101B000084839583A683B78386E491E09183808361
:101B1000ECE8F3E01682178210861186128613868F
:101B20001486158616861786108A118A128A138AD9
:101B3000148A158AC2EDD3E01B821A8288E591E0EF
:101B4000998388831F82188680ED97E0A0E0B0E03B
:101B5000888B998BAA8BBB8B86E290E0A0E0B0E0EB
:101B60008C8B9D8BAE8BBF8B1C861D861E861F8625
:101B70001B860E940003688F798F8A8F9B8F1C8E33
:101B80001D8E1E8E1F8E8EE691E09983888318A28B
:101B90001AA219A2DF91CF910895EE0FFF1F0590B1
:101BA000F491E02D099481E090E0F8940C94D80D24
:041BB000F894FFCFD7
:101BB4000404041C000000000404040700000000E6
:101BC4000000001C040404040000000704040404CE
:101BD4000000001F000000000404040404040404C2
:101BE4000000000033012009CA008001FB00D90075
:101BF400ED000000000041021402B201A7020C0231
:101C0400F801E90100000000CE072009B2017002CA
:101C1400B201AF017102AC01AC0100000000CE07BB
:101C24002009B2017002970391058E067302AC017C
:101C3400564D4450565F317C315F564D4450560AE0
:101C440000564D4450525F00536B657463683A20EC
:101C5400202000673A5C4D792044726976655C50B7
:101C6400726F6A656374735C4C434454656D70436E
:101C74006F6E74726F6C6C65725C4C434454656D2A
:101C840070436F6E74726F6C6C65725C4C43445439
:101C9400656D70436F6E74726F6C6C65722E696ED5
:101CA4006F0055706C6F616465643A20004E6F7606
:101CB40020313620323032320054656D7020433A80
:101CC4002000202020202020200054656D70204614
:061CD4003A20000D0A0099
:107E0000112484B714BE81FFF0D085E080938100F7
:107E100082E08093C00088E18093C10086E0809377
:107E2000C20080E18093C4008EE0C9D0259A86E02C
:107E300020E33CEF91E0309385002093840096BBD3
:107E4000B09BFECF1D9AA8958150A9F7CC24DD24C4
:107E500088248394B5E0AB2EA1E19A2EF3E0BF2EE7
:107E6000A2D0813461F49FD0082FAFD0023811F036
:107E7000013811F484E001C083E08DD089C08234E0
:107E800011F484E103C0853419F485E0A6D080C0E4
:107E9000853579F488D0E82EFF2485D0082F10E0AE
:107EA000102F00270E291F29000F111F8ED06801E7
:107EB0006FC0863521F484E090D080E0DECF843638
:107EC00009F040C070D06FD0082F6DD080E0C81688
:107ED00080E7D80618F4F601B7BEE895C0E0D1E017
:107EE00062D089930C17E1F7F0E0CF16F0E7DF06D8
:107EF00018F0F601B7BEE89568D007B600FCFDCFD4
:107F0000A601A0E0B1E02C9130E011968C91119780
:107F100090E0982F8827822B932B1296FA010C0160
:107F200087BEE89511244E5F5F4FF1E0A038BF0790
:107F300051F7F601A7BEE89507B600FCFDCF97BE46
:107F4000E89526C08437B1F42ED02DD0F82E2BD052
:107F50003CD0F601EF2C8F010F5F1F4F84911BD097
:107F6000EA94F801C1F70894C11CD11CFA94CF0C13
:107F7000D11C0EC0853739F428D08EE10CD085E9AC
:107F80000AD08FE07ACF813511F488E018D01DD067
:107F900080E101D065CF982F8091C00085FFFCCF94
:107FA0009093C60008958091C00087FFFCCF809118
:107FB000C00084FD01C0A8958091C6000895E0E648
:107FC000F0E098E1908380830895EDDF803219F02E
:107FD00088E0F5DFFFCF84E1DECF1F93182FE3DFCA
:107FE0001150E9F7F2DF1F91089580E0E8DFEE27F6
:047FF000FF270994CA
:027FFE00040479
:0400000300007E007B
:00000001FF