:100000000C94A0000C94C8000C94C8000C94C80078
:100010000C94C8000C94C8000C94C8000C94C80040
:100020000C94C8000C94C8000C94C8000C94C80030
:100030000C94C8000C94C8000C94C8000C94C80020
:100040000C9493050C94C8000C9494090C946E09BC
:100050000C94C8000C94C8000C94C8000C94C80000
:100060000C9415070C94C80020446F6E65002E0098
:10007000202D2053656E736F7273202844533138DE
:1000800042323029200020446F6E65002E002E0081
:10009000202D204C43442028323078342920002061
:1000A000446F6E65002E00202D20492F4F2050698F
:1000B0006E732028427574746F6E732900496E69DF
:1000C0007469616C697A696E6720000A4C43442048
:1000D00054656D706572617475726520436F6E74DE
:1000E000726F6C6C65722076312E30612032303246
:1000F00032313131360A0A000000000025002800A4
:100100002B00040404040404040402020202020298
:1001100003030303030301020408102040800102CB
:10012000040810200102040810200000000800024A
:100130000100000304070000000000000000CA11D5
:1001400011241FBECFEFD8E0DEBFCDBF25E0ACEE5F
:10015000B2E001C01D92AB30B207E1F712E0A0E0BF
:10016000B1E0E4E0FAE202C005900D92AC3EB107C6
:10017000D9F710E0C0EAD0E004C02197FE010E9448
:10018000FE12CF39D107C9F70E94FA0D0C94001561
:100190000C9400008DEF9FEF08958DEF9FEF089571
:1001A00080E090E0089585ED8093BC008091BC00D4
:1001B00084FDFCCF10929103089540910F03262FE8
:1001C00030E0240F311D21323105DCF42091910300
:1001D0002430C9F4FC0180E090E0861758F4309197
:1001E0000F032191DC01A351BD4FA30FB11D2C932F
:1001F0000196F3CF80910F03680F60930F0380E0A7
:10020000089581E0089582E0089508950895E091A9
:100210004A0380914903E81730F4F0E0E55BFC4FB6
:10022000808190E008958FEF9FEF089590914A03A9
:1002300080914903981750F4E92FF0E0E55BFC4FFB
:10024000208130E09F5F90934A0302C02FEF3FEF81
:10025000C90108958091490390E020914A03821BCF
:1002600091090895CF92DF92EF92FF920F931F931F
:10027000CF93DF937C01CB018A012091920322234B
:1002800089F0EB016B01C40ED51ECC15DD0569F0BC
:100290006991D701ED91FC910190F081E02DC701AA
:1002A0000995F3CF642F0E94DD00C801DF91CF9143
:1002B0001F910F91FF90EF90DF90CF900895CF9313
:1002C000DF931F92CDB7DEB769832091920322237B
:1002D000D1F02091B403203240F021E030E0FC0165
:1002E0003383228380E090E015C080919303E82F50
:1002F000F0E0EC56FC4F998190838F5F80939303DD
:100300008093B40305C061E0CE0101960E94DD0038
:1003100081E090E00F90DF91CF91089508950F93C1
:100320001F93CF93DF93182FD0E0C0E28C2F0E9451
:100330007D0A0E94210A082F61E070E080E090E0D1
:100340000E94C609011103C01D17D9F0DF5FCF5FFE
:10035000C83261F7C8E38C2F0E947D0A0E94210AEF
:10036000082F61E070E080E090E00E94C609011172
:1003700003C01D1731F0DF5FCF5FC03461F780E04D
:1003800001C08C2FDF91CF911F910F910895CF93D2
:10039000DF93FC0182A5882349F193A5662319F018
:1003A000913029F402C0911102C084A701C014A6A3
:1003B000EF0180A10E947D0A89A19AA1029721F4F0
:1003C00089E090E00E94AF0A6CA582E594E00E946B
:1003D0005F010E94210A21E030E0811102C020E08B
:1003E00030E088279927821B930B02C08DEF9FEF87
:1003F000DF91CF9108950F931F93CF93DF93EC017B
:1004000010924A0310924903109293031092B4037E
:100410001092910381E08093900310926B0382E12C
:100420000E94CB0B83E10E94CB0B8091B9008E7FA1
:100430008093B9008091B9008D7F8093B90088E4E2
:100440008093B80085E48093BC0085E091E09093B0
:100450000E0380930D0386E091E090931203809346
:10046000110388A181110AC08091EC0291E0980FDC
:100470009093EC020E948F0188A309C00E947D0A1C
:100480000E94210A882319F08CEF9FEFA9C188A14F
:10049000811109C08091EC0291E0980F9093EC02D9
:1004A0000E948F0188A318A1112371F389A19AA139
:1004B000892B09F05AC1812F0E947D0A60E082E5F4
:1004C00094E00E945F016FEF82E594E00E945F017B
:1004D0000E94210A812F0E947D0A60E082E594E05B
:1004E0000E945F010E94210A812F90E00E94840BEC
:1004F00082E594E00E9416018F3F910541F031E0C2
:1005000020E0892B09F030E0832F922F02C082E097
:1005100090E09AA389A3009709F424C1019709F0F8
:10052000A5C088A10E947D0A6FEF82E594E00E9439
:100530005F010E94210A88A190E00E94840B82E55D
:1005400094E00E9416018C0188A10E947D0A6BEF45
:1005500082E594E00E945F010E94210A88A190E058
:100560000E94840B82E594E00E9416019801277096
:10057000332727303105B1F4807F9927803F9105DB
:1005800089F483E0169507958A95E1F761E00627DF
:10059000017043E057E066E075E0E4E022E0F1E05E
:1005A00030E02CC0C801807799278037910509F089
:1005B00015C188A10E947D0A6FEE82E594E00E9439
:1005C0005F010E94210A88A190E00E94840B82E5CD
:1005D00094E00E9416018F7099270F9719F026E07A
:1005E00034E002C024E036E00095001F0027001F21
:1005F00047E053E062E071E0E0E0F5E081E090E0A8
:10060000DC0101C0AA0F3A95EAF7ABA3DC0101C0F7
:10061000AA0FFA95EAF7ACA3DC0102C0AA0FBB1F30
:100620002A95E2F7ADA39C0101C0220FEA95EAF7F3
:100630002EA39C0101C0220F7A95EAF72FA39C01FB
:1006400001C0220F6A95EAF728A79C0101C0220F7A
:100650005A95EAF729A701C0880F4A95EAF78AA7B1
:100660000BA7013009F47CC01CA67FC088A10E94A2
:100670007D0A60E082E594E00E945F018FEF90E0E8
:100680000E94AF0A0E94210A88A10E947D0A86E08A
:1006900090E00E94AF0A8FE790E00E94AF0A0E94AC
:1006A000210A88A10E947D0A89E090E00E94AF0A99
:1006B0000E94210A88A190E00E94840B82E594E0C8
:1006C0000E9416018F3761F086FF12C081FD86C03F
:1006D00021E032E043E054E065E076E0E7E00FC07F
:1006E00027E036E045E054E063E072E0E1E007C077
:1006F00026E033E042E051E060E077E0E4E081E0D2
:1007000090E0DC0102C0AA0FBB1FEA95E2F7ABA3A1
:100710001CA2FC0101C0EE0F7A95EAF7EDA3FC01E3
:1007200002C0EE0FFF1F6A95E2F7EEA3BC0101C005
:10073000660F5A95EAF76FA3BC0102C0660F771FD8
:100740004A95E2F768A7AC0101C0440F3A95EAF771
:1007500049A701C0880F2A95EAF78AA791E09BA7CD
:100760008CA703C08FEF9FEF3BC088A10E947D0A3A
:1007700089A19AA1029701F585E090E00E94AF0A55
:1007800080E290E00E94AF0A0E94210A88A10E94A4
:100790007D0A60E082E594E00E945F0160E082E50E
:1007A00094E00E945F010E94210A88A10E947D0AB4
:1007B00089E090E00E94AF0A60E082E594E00E9448
:1007C0005F010E94210A21E030E0811102C020E097
:1007D00030E088279927821B930B02C08DEF9FEF93
:1007E000DF91CF911F910F9108953FB7F8948091B9
:1007F000390390913A03A0913B03B0913C0326B595
:10080000A89B05C02F3F19F00196A11DB11D3FBF48
:10081000BA2FA92F982F8827820F911DA11DB11DD6
:10082000BC01CD0142E0660F771F881F991F4A95D2
:10083000D1F708954F925F926F927F928F929F921D
:10084000AF92BF92EF92FF920F931F93CF93DF93DC
:10085000EC011CA588A1882309F4D4C089A19AA120
:10086000009709F4CFC0029709F4CFC08CA1882368
:1008700009F4CBC07B014C8C5D8C6E8C7F8C888C9A
:10088000998CAA8CBB8C8DE2881A9108A108B108BA
:100890000E94F503DC01CB0188199909AA09BB095B
:1008A00084159505A605B70598F38EA1182B8FA181
:1008B000182B88A5182B89A5182BEA94EF2811F47A
:1008C0008BA1182B8CA1182B88A10E947D0A612F67
:1008D00082E594E00E945F010E94210A882319F0BA
:1008E0000FEF1FEF81C088A10E947D0A8DA1812B8F
:1008F00090E00E94AF0A0E94210A8111F1CF88A1E5
:1009000090E00E94840B82E594E00E9416017C0135
:1009100097FDE6CF88A10E947D0A612F82E594E0D1
:100920000E945F010E94210A8111DACF8EA190E01E
:100930008E219F21892B11F400E001C000E18FA1DD
:1009400090E08E219F21892B09F0006288A590E01C
:100950008E219F21892B09F0006489A590E0E8226F
:10096000F922EF2809F0006888A10E947D0A8DA174
:10097000812B90E00E94AF0A0E94210A8111B0CF22
:1009800088A190E00E94840B82E594E00E94160109
:100990007C0197FDA5CF88A10E947D0A612F82E589
:1009A00094E00E945F010E94210A811199CF8EA1DB
:1009B00090E08E219F21892B09F001608FA190E0AA
:1009C0008E219F21892B09F0026088A590E08E215D
:1009D0009F21892B09F0046089A590E0E822F92283
:1009E000EF2809F0086010E088A10E947D0A6CA53C
:1009F00082E594E00E945F010E94210A882339F079
:100A00008FEF01C08CEF9FEF03C08DEFFCCFC801CB
:100A1000DF91CF911F910F91FF90EF90BF90AF901A
:100A20009F908F907F906F905F904F9008954F921E
:100A30005F926F927F928F929F92AF92BF92EF924E
:100A4000FF921F93CF93DF93EC0188A1882309F4D1
:100A50004EC089A19AA1892B09F449C0142F7B01AA
:100A60004C8C5D8C6E8C7F8C888C998CAA8CBB8C0A
:100A70008DE2881A9108A108B1080E94F503DC01F3
:100A8000CB0188199909AA09BB0984159505A60502
:100A9000B70598F388A10E947D0A89A19AA10297BF
:100AA00021F489E090E00E94AF0A612F70E084E0B9
:100AB000759567958A95E1F7A701CE010E94610BB4
:100AC00082E0E816F10431F0612F6F70A701CE01CA
:100AD0000E94610B0E94210A21E030E0811102C0D6
:100AE00020E030E088279927821B930B02C08CEF0F
:100AF0009FEFDF91CF911F91FF90EF90BF90AF904C
:100B00009F908F907F906F905F904F9008952FB738
:100B1000F89460913503709136038091370390917A
:100B200038032FBF08951F920F920FB60F92112412
:100B30002F933F938F939F93AF93BF9380913503F0
:100B400090913603A0913703B0913803309134036C
:100B500023E0230F2D3720F40196A11DB11D05C000
:100B600026E8230F0296A11DB11D20933403809324
:100B7000350390933603A0933703B09338038091E5
:100B8000390390913A03A0913B03B0913C03019645
:100B9000A11DB11D8093390390933A03A0933B03A9
:100BA000B0933C03BF91AF919F918F913F912F9153
:100BB0000F900FBE0F901F901895CF92DF92EF927B
:100BC000FF920F931F93CF93DF93EC01462FE881A1
:100BD000F9810484F585E02D61E070E009958C01D0
:100BE000CC88DD88EE88FF880E94F503688F798FB6
:100BF0008A8F9B8FCC8EDD8EEE8EFF8E81E090E013
:100C0000012B11F080E090E0DF91CF911F910F91C7
:100C1000FF90EF90DF90CF9008958F929F92AF92C8
:100C2000BF92EF92FF921F93CF93DF93EC01162FA9
:100C3000E881F9810484F585E02D462F60E070E0BD
:100C400009957C011150123038F419861A8688886B
:100C50009988AA88BB8804C08C889D88AE88BF8884
:100C60000E94F503688F798F8A8F9B8F8C8E9D8E63
:100C7000AE8EBF8EC701DF91CF911F91FF90EF9095
:100C8000BF90AF909F908F900895FC01808548178A
:100C900010F04FEF480F9385992359F0978169170A
:100CA00030F0691B4F5F4817D0F340E0F8CF618701
:100CB0004287DF01A40FB11D1C968C91680F6068FC
:100CC000CF010C940D060F931F93CF93DF93EC018C
:100CD0000E94DD058C018B85882399F089858F5FC3
:100CE00089879F81891768F019868A858F5F8A872F
:100CF0009885891708F01A864A8560E0CE010E941F
:100D00004506C801DF91CF911F910F910895CF92B1
:100D1000DF92EF92FF920F931F93CF93DF93CDB7A4
:100D2000DEB7A1970FB6F894DEBF0FBECDBF44E08B
:100D300061E089ED94E00E94450620913D033091E9
:100D40003E0340913F035091400319A28E010F5D75
:100D50001F4F8AE0C82ED12CE12CF12CCA01B90119
:100D6000A70196010E94A512605DF80162938F01B0
:100D7000211531054105510589F7BF0189ED94E041
:100D80000E945909A1960FB6F894DEBF0FBECDBFE1
:100D9000DF91CF911F910F91FF90EF90DF90CF9057
:100DA00008950E941C0A42E065E089ED94E00E94EB
:100DB000450662EC71E089ED94E00E94F80D41E097
:100DC0006AE089ED94E00E94450668EC71E089EDE7
:100DD00094E00E94F80D87E896E00E94230DA4EAB3
:100DE000B4E0D2968D919C91D3972AE0289FF00190
:100DF000299FF00D1124EC55FB4F27E836E0318395
:100E000020832DE730E037832683118610864DE757
:100E100050E060E070E04283538364837583019601
:100E2000D3969C938E93D29708951F920F920FB6EC
:100E30000F9211242F933F934F935F936F937F9360
:100E40008F939F93AF93BF93EF93FF938091B900DC
:100E5000887F803609F49CC068F5883209F45BC04D
:100E600090F4803109F454C038F4882309F4F6C0B2
:100E7000883009F44DC0F6C0883109F44CC0803286
:100E800009F45DC0EFC0803409F468C048F48033D1
:100E900009F455C0883309F0E5C080938F03D8C0AA
:100EA000803509F44FC0883509F45DC0883409F0F5
:100EB000D9C0D6C0883909F4C7C0A8F4883709F466
:100EC00067C038F4883609F463C0803709F460C01D
:100ED000C9C0883809F4B8C0803909F45FC08038C7
:100EE00009F0C0C05BC0803B09F486C038F4803A8A
:100EF00009F466C0883A09F47FC0B4C0803C09F4A4
:100F0000A7C0883C09F4A4C0883B09F48AC0AAC0E1
:100F100080916C0310C090918E0380918D0398177F
:100F200070F5E0918E0381E08E0F80938E03F0E0E8
:100F3000E359FC4F80818093BB0085EC86C0809391
:100F40008F038EC0E0918E0381E08E0F80938E031D
:100F50008091BB00F0E0E359FC4F808390918E03B9
:100F600080918D036EC0E0918E0381E08E0F80939F
:100F70008E038091BB00F0E0E359FC4F80838091A9
:100F8000900381116DC081E080936B0384EA61C09E
:100F900083E08093910310923303CFCF809133038A
:100FA000803208F051C0E091330381E08E0F8093CE
:100FB00033038091BB00F0E0ED5EFC4F8083BDCF3A
:100FC00085EC8093BC0010929103809133038032B2
:100FD00030F4E0913303F0E0ED5EFC4F108260915D
:100FE000330370E0E0911103F091120383E193E089
:100FF00009951092330336C084E0809391031092D8
:10100000100310920F03E0910D03F0910E03099568
:1010100080910F03811105C081E080930F0310922E
:10102000ED02E091100381E08E0F80931003F0E059
:10103000E351FD4F80818093BB009091100380911C
:101040000F03981708F479CF85E88093BC000AC095
:1010500085EC8093BC001092910304C010928F0322
:101060000E94D300FF91EF91BF91AF919F918F911B
:101070007F916F915F914F913F912F910F900FBE94
:101080000F901F9018950895DC01ED91FC9102805E
:10109000F381E02D0994CF92DF92EF92FF920F93AC
:1010A0001F93CF93DF936C017A018B01C0E0D0E0F6
:1010B000CE15DF0581F0D8016D918D01D601ED913E
:1010C000FC910190F081E02DC6010995892B11F06A
:1010D0002196EECF7E01C701DF91CF911F910F9135
:1010E000FF90EF90DF90CF900895FC01538D448DD9
:1010F000252F30E0842F90E0821B930B541710F0C3
:10110000CF96089501970895FC01918D828D9817CF
:1011100061F0828DDF01A80FB11D5D968C91928DDB
:101120009F5F9F73928F90E008958FEF9FEF0895D8
:10113000FC01918D828D981731F0828DE80FF11DA1
:10114000858D90E008958FEF9FEF0895FC01918DBC
:10115000228D892F90E0805C9F4F821B91098F73B5
:101160009927089585EB93E00E94A60821E0892B3A
:1011700009F420E0822F0895FC01848DDF01A80F7F
:10118000B11DA35ABF4F2C91848D90E001968F73AF
:101190009927848FA689B7892C93A089B1898C91CE
:1011A000837080648C93938D848D981306C002881D
:1011B000F389E02D80818F7D80830895EF92FF92E7
:1011C0000F931F93CF93DF93EC0181E0888F9B8D6A
:1011D0008C8D981305C0E889F989808185FD26C02A
:1011E000F62E0B8D10E00F5F1F4F0F731127E02EAF
:1011F0008C8DE8120CC00FB607FCFACFE889F9898C
:10120000808185FFF5CFCE010E94BC08F1CF8B8D88
:10121000FE01E80FF11DE35AFF4FF0829FB7F894EB
:101220000B8FEA89FB89808180620AC09FB7F8949E
:10123000EE89FF896083E889F98980818370806401
:1012400080839FBF81E090E0DF91CF911F910F914C
:10125000FF90EF900895CF93DF93EC01888D882362
:10126000C9F0EA89FB89808185FD05C0A889B98913
:101270008C9186FD0FC00FB607FCF5CF808185FFEE
:10128000F2CFA889B9898C9185FFEDCFCE010E945C
:10129000BC08E7CFDF91CF91089580E090E0892BE3
:1012A00029F00E94B20881110C94000008950E9458
:1012B000EB146115710579F0FB0101900020E9F74D
:1012C0003197AF01461B570BDC01ED91FC91028079
:1012D000F381E02D099480E090E008951F920F9231
:1012E0000FB60F9211242F933F934F935F936F93F9
:1012F0007F938F939F93AF93BF93EF93FF9385EB70
:1013000093E00E94BC08FF91EF91BF91AF919F9134
:101310008F917F916F915F914F913F912F910F909E
:101320000FBE0F901F9018951F920F920FB60F923D
:1013300011242F938F939F93EF93FF93E091C50315
:10134000F091C6038081E091CB03F091CC0382FD44
:1013500012C090818091CE038F5F8F732091CF0355
:10136000821751F0E091CE03F0E0EB54FC4F958FE3
:101370008093CE0301C08081FF91EF919F918F9167
:101380002F910F900FBE0F901F9018958F929F92E4
:10139000AF92BF92CF92DF92EF92FF926B017C01EE
:1013A0000E94F5034B015C01C114D104E104F10476
:1013B000F1F00E94F503DC01CB0188199909AA0913
:1013C000BB09883E9340A105B10570F321E0C21A24
:1013D000D108E108F10888EE880E83E0981EA11C70
:1013E000B11CC114D104E104F10419F7DDCFFF9061
:1013F000EF90DF90CF90BF90AF909F908F90089527
:10140000FC01808191810C949C13CF93DF93FC01AC
:10141000448155816081718185EB93E00E9444088D
:10142000EC0164EB72E085EB93E00E9459098C0FAC
:101430009D1FDF91CF91089561E089ED94E00C94B8
:101440000D063091B403313208F04BC08091910306
:101450008111FCCF9091060522E02093910321E0B9
:10146000209390032FEF20938F0310928E033093DD
:101470008D03E4E9F3E0ADE6B3E020E0321721F0BC
:1014800041914D932F5FFACF10926C0320916C0322
:10149000990F922B90936C0390916B03913061F4B0
:1014A00010926B0390916C039093BB009091BC00E1
:1014B00093FDF8CF95EC01C095EE9093BC00909110
:1014C00091039230E1F390918F039F3F79F08091E7
:1014D0008F03803241F080918F03803331F084E0BC
:1014E00005C081E003C082E001C083E01092930355
:1014F0001092B40310929203089591E09093920396
:1015000080930605109293031092B4030895E5EBBF
:10151000F3E0A089B18982E08C93A485B5851C9203
:10152000A685B7858FEC8C93108EA489B58986E04B
:101530008C93A289B3898C9180618C93A289B389A1
:101540008C9188608C93A289B3898C9180688C93EC
:101550000288F389E02D80818F7D80830895682F34
:1015600082E594E00C945F01EF92FF920F931F933A
:10157000CF93DF937B01C82FC77060E070E089EDE7
:1015800094E00E941A0497FD04C08C010F77112784
:1015900002C000E010E088E0C89FB0011124606440
:1015A00089ED94E00E940D060097E1F4E70188E0E0
:1015B000E80EF11C699189ED94E00E94DD05019728
:1015C00079F4CE15DF05B1F740E0602F89ED94E0A6
:1015D000DF91CF911F910F91FF90EF900C944506F2
:1015E0008FEF9FEFDF91CF911F910F91FF90EF90C1
:1015F0000895CF93DF93BC0185EB93E00E945909D6
:10160000EC0164EB72E085EB93E00E9459098C0FCA
:101610009D1FDF91CF9108950F931F93CF93DF9379
:101620008C01C0E0D0E0F801EC0FFD1F649166234F
:1016300041F085EB93E00E94DE08892B11F02196A2
:10164000F2CFCE01DF91CF911F910F910895CF93EB
:10165000DF930E940C0BEC0164EB72E085EB93E0EE
:101660000E9459098C0F9D1FDF91CF910895CF9251
:10167000DF92EF92FF920F931F93CF93DF93482F48
:1016800062E070E089ED94E00E9417058C01C9EDDD
:10169000D4E0CC88DD88EE88FF880E94F503688F4F
:1016A000798F8A8F9B8FCC8EDD8EEE8EFF8EC80158
:1016B000DF91CF911F910F91FF90EF90DF90CF902E
:1016C0000895CF93FC01C4A560FF02C086A1C82B7A
:1016D00061FF02C087A1C82B62FF02C080A5C82B92
:1016E00063FF02C081A5C82B4130510511F483A1CD
:1016F000C82B85A18C2B90E00E94AF0A6C2F82E54D
:1017000094E0CF910C945F01909191039111FCCFE3
:1017100091E090939103909390032FEF20938F0388
:1017200010928E0310928D0390936C0390916C0332
:10173000880F892B80936C0380916B03813061F457
:1017400010926B0380916C038093BB008091BC006E
:1017500083FDF8CF85EC01C085EE8093BC008091BD
:1017600091038130E1F380918E03811103C0909148
:101770008E0301C091E0EDE6F3E0ABE4B3E080E07E
:10178000891721F021912D938F5FFACF10924A0390
:1017900080934903089590E0FC01E65DFE4F24919B
:1017A000FC01EA5EFE4F3491FC01EE5FFE4FE491D6
:1017B000EE23B1F1222339F1233091F038F42130B6
:1017C000A9F0223001F584B58F7D12C0273091F049
:1017D0002830A1F02430B9F4809180008F7D03C0BF
:1017E000809180008F77809380000DC084B58F77C3
:1017F00084BD09C08091B0008F7703C08091B00094
:101800008F7D8093B000F0E0EE0FFF1FE850FF4F98
:10181000A591B4918FB7F894EC91E32BEC938FBF23
:1018200008950F931F93CF93DF93EC0188819981E3
:10183000009729F02A813B812617370788F48B010E
:101840006F5F7F4F0E942514009761F09983888312
:101850001B830A832C813D81232B11F4FC01108210
:1018600081E001C080E0DF91CF911F910F91089539
:10187000CF93DF93EC0188819981009711F00E944A
:101880009C13198218821D821C821B821A82DF918E
:10189000CF910895EF92FF920F931F93CF93DF9311
:1018A000EC01FB0104811581E080F180E114F10479
:1018B000C9F001151105C9F08C819D81080F191F10
:1018C000B801CE010E94110C882361F02881398172
:1018D0008C819D81B701820F931F0E94F9141D8393
:1018E0000C8303C0CE010E94380CCE01DF91CF9152
:1018F0001F910F91FF90EF900895EF92FF920F9339
:101900001F93CF93DF93EC017B018A01BA010E9400
:10191000110C811104C0CE010E94380C07C01D8338
:101920000C83B701888199810E94F914CE01DF915F
:10193000CF911F910F91FF90EF900895EF92FF923A
:101940000F931F93CF93DF93CDB7DEB7A1970FB659
:10195000F894DEBF0FBECDBF8C01CB01BA01F801F8
:101960001182108213821282158214822AE0AE0143
:101970004F5F5F4F7A010E945912F70101900020DA
:10198000E9F73197AF014E195F09B701C8010E940D
:101990007D0CA1960FB6F894DEBF0FBECDBFDF91D0
:1019A000CF911F910F91FF90EF900895EF92FF92CA
:1019B0000F931F93CF93DF93CDB7DEB762970FB628
:1019C000F894DEBF0FBECDBF8C01CB01F8011182B0
:1019D000108213821282158214824AE09E012F5FC8
:1019E0003F4F7901B9010E944E12F701019000208A
:1019F000E9F73197AF014E195F09B701C8010E949D
:101A00007D0C62960FB6F894DEBF0FBECDBFDF919E
:101A1000CF911F910F91FF90EF900895FC011182DB
:101A2000108213821282158214826115710551F0A1
:101A3000FB0101900020E9F73197AF01461B570BDE
:101A40000C947D0C0895CF92DF92EF92FF920F934A
:101A50001F93CF93DF93CDB7DEB72C970FB6F894D3
:101A6000DEBF0FBECDBF6C016091D6047091D7046C
:101A7000CE0101960E94D60C67EB72E0CE0107966C
:101A80000E940E0DBE016F5F7F4FCE0107960E9430
:101A90004A0C0E94050ACE0107960E94000ACE0158
:101AA00001960E94000A84EAE82E84E0F82E00E005
:101AB00010E08091D6049091D704081719070CF014
:101AC00069C0B801CE0101960E94D60C65EC72E0A7
:101AD000CE0107960E940E0DBE016F5F7F4FCE01B3
:101AE00007960E944A0C0E94050ACE0107960E94A2
:101AF000000ACE0101960E94000A8AE0E80EF11C5D
:101B0000F7013A97808191818C159D0509F03FC0BE
:101B10008AE0809FD001819FB00D1124AC55BB4F4E
:101B20002091D6043091D70421503109829FF001D1
:101B3000839FF00D1124EC55FB4F01900D928A9577
:101B4000E1F7B801CE0101960E94D60C6FEC72E06D
:101B5000CE0107960E940E0DBE016F5F7F4FCE0132
:101B600007960E944A0C0E94050ACE0107960E9421
:101B7000000ACE0101960E94000A8091D60490913D
:101B8000D70401979093D7048093D60403C00F5FC6
:101B90001F4F8FCF6091D6047091D704CE0101966C
:101BA0000E94D60C6DED72E0CE0107960E940E0DDC
:101BB000BE016F5F7F4FCE0107960E944A0C0E94C4
:101BC000050ACE0107960E94000ACE0101960E94E6
:101BD000000A2C960FB6F894DEBF0FBECDBFDF9182
:101BE000CF911F910F91FF90EF90DF90CF900895CC
:101BF0000C945909CF93DF93CDB7DEB7EC970FB6AE
:101C0000F894DEBF0FBECDBF789484B5826084BDEA
:101C100084B5816084BD85B5826085BD85B58160F0
:101C200085BD80916E00816080936E00109281006E
:101C30008091810082608093810080918100816029
:101C400080938100809180008160809380008091EA
:101C5000B10084608093B1008091B0008160809376
:101C6000B00080917A00846080937A0080917A003D
:101C7000826080937A0080917A00816080937A00FC
:101C800080917A00806880937A001092C10010924F
:101C9000A0041092A1041092A2041092A304109226
:101CA00060041092610410926204109263040E9416
:101CB00087056B017C014B015C0128EB820E2BE058
:101CC000921EA11CB11C0E9487056C157D058E0516
:101CD0009F0528F086169706A806B906A0F768EEB5
:101CE00073E080E090E00E94C6090E94870A0E948B
:101CF00087056093600470936104809362049093FD
:101D000063046EEC71E085EB93E00E94F80D0E9495
:101D100087056B017C014B015C018AE0880E911CF8
:101D2000A11CB11C0E9487056C157D058E059F05C1
:101D300028F086169706A806B906A0F781E08093DA
:101D400074040E948705609360047093610480931B
:101D50006204909363046FED71E085EB93E00E9461
:101D6000F80D0E941C0A0E94870A66EE71E085EB5E
:101D700093E00E94F80D81EF91E00E94F90A60E47F
:101D800072E085EB93E00E94F80D8BE492E00E94F4
:101D9000F90A8FEE91E00E94F90A8BEC90E00E9424
:101DA000270B8DEB90E00E94270B87EA90E00E94C2
:101DB0000C0B85EA90E00E940C0B8FE990E00E94EA
:101DC000270B62E370E080E090E00E94C60980E9A2
:101DD00090E00E940C0B8091E50481110CC0809171
:101DE000E604811108C08091E704811104C080914C
:101DF000E804882331F08091E004882369F084317D
:101E000059F01092E50480E48093E60484E1809325
:101E1000E70484E58093E80484E08093E10484E1AE
:101E20008093E00464E670E080E090E00E94C609E0
:101E30001092DD0489ED94E00E94FB01892B09F0EA
:101E400049C08091E104823028F08091DD048860EF
:101E50008093DD0480E30E94370B65E070E080E052
:101E600090E00E94C60980E30E94370B61E070E0B9
:101E700080E090E00E94C60980E30E94370B61E099
:101E800070E080E090E00E94C6098091DD0484FD4E
:101E900003C080E20E94370B6091DD04606289ED2F
:101EA00094E00E940D0684E08093DE046CE089EDEE
:101EB00094E00E940D060E941C0A82E08093DF04D9
:101EC00066E089ED94E00E940D066FEF89ED94E0E5
:101ED0000E94C7018EE890E00E940C0B0E941C0A31
:101EE0008CE890E00E940C0B68E271E081E00E94B7
:101EF000B40A60E271E082E00E94B40A68E171E035
:101F000083E00E94B40A60E171E084E00E94B40AB8
:101F100068E071E085E00E94B40A60E071E086E06C
:101F20000E94B40A84E1E6E3F1E0DE0199960190B3
:101F30000D928A95E1F784E1EAE4F1E0DE0155963D
:101F400001900D928A95E1F784E1EEE5F1E0DE0182
:101F5000119601900D928A95E1F740E060E089EDDD
:101F600094E00E94450644E150E0BE01675D7F4F6A
:101F700089ED94E00E94440841E060E089ED94E03E
:101F80000E94450644E150E0BE016B5E7F4F89ED43
:101F900094E00E94440842E060E089ED94E00E94F1
:101FA000450644E150E0BE016B5E7F4F89ED94E051
:101FB0000E94440843E060E089ED94E00E944506F9
:101FC00044E150E0BE016F5F7F4F89ED94E00E94D5
:101FD000440841E065E089ED94E00E94450662EC2A
:101FE00071E089ED94E00E94F80D42E06AE089ED2D
:101FF00094E00E94450668EC71E089ED94E00E944F
:10200000F80D86E890E00E94270B62E370E080E024
:1020100090E00E94C60980E790E00E940C0B8EE6DB
:1020200090E00E940C0B88E690E00E94270B62E390
:1020300070E080E090E00E94C60967E572E085EB01
:1020400093E00E94F80D65E672E085EB93E00E9454
:10205000F80D65E672E085EB93E00E94F80D809143
:10206000D6049091D7042AE0289FF001299FF00D13
:102070001124EC55FB4F21ED36E03183208324E31E
:1020800031E23783268321E030E03187208744E343
:1020900051E260E070E0428353836483758301966C
:1020A0009093D7048093D60465E672E085EB93E0C5
:1020B0000E94F80D65E672E085EB93E00E94F80D52
:1020C00087E692E00E94F90A62E370E080E090E027
:1020D0000E94C609772473940E9487054B015C0116
:1020E00060933D0370933E0380933F0390934003BE
:1020F0008091450390914603A0914703B091480316
:102100000196A11DB11D8093450390934603A093B2
:102110004703B093480384EAE82E84E0F82E870151
:10212000C12CD12C6091D6047091D704C616D70665
:102130000CF049C0D80116968D919C911797892B68
:1021400059F012968D919D910D90BC91A02D8815FE
:102150009905AA05BB058CF5F801808581FD2DC088
:102160000190F081E02D0995D80118968D919C91F0
:10217000199780FF0CC0826019969C938E931897D4
:102180007092D8048DE692E00E94F90A16C0F80118
:1021900086819781009749F0092E000CAA0BBB0B92
:1021A000880D991DAA1DBB1D03C080E090E0DC01D5
:1021B000F80182839383A483B583FFEFCF1ADF0AEC
:1021C000065F1F4FAFCF8091D804882309F451C018
:1021D000CE0145960E94D60C6EE772E0CE010196C4
:1021E0000E940E0DBE016B5E7F4FCE0101960E94D4
:1021F0004A0C0E94050ACE0101960E94000ACE01F7
:1022000045960E94000A00E010E06091D6047091AB
:10221000D7040617170784F4D70118968C911897DE
:1022200081FF04C08D919C910E94230D0F5F1F4F71
:10223000BAE0EB0EF11CE9CF1092D804CE0145961E
:102240000E94D60C64E972E0CE0101960E940E0D48
:10225000BE016B5E7F4FCE0101960E944A0C0E9428
:10226000050ACE0101960E94000ACE0145960E9401
:10227000000A80913D0390913E03A0913F03B091ED
:102280004003409141035091420360914303709198
:102290004403841B950BA60BB70B893E9340A10505
:1022A000B10508F470C04091450350914603609118
:1022B000470370914803CE0189960E949E0C40917D
:1022C0003D0350913E0360913F0370914003CE0166
:1022D00045960E949E0C6AEA72E0CE0101960E9429
:1022E0000E0DBE016B5E7F4FCE0101960E944A0C1F
:1022F0008C01DC011496ED90FC901597B4E0EB0E88
:10230000F11CB7010E94110C882309F43FC0F801A9
:1023100020813181848195816FEA72E0820F931F61
:102320000E94F914D8011596FC92EE921497BE0102
:10233000675D7F4FC8010E944A0C0E94050ACE01CA
:1023400001960E94000ACE0145960E94000ACE0125
:1023500089960E94000A80913D0390913E03A091CE
:102360003F03B09140038093410390934203A093B5
:102370004303B09344031092450310924603109216
:102380004703109248030E944D09A6CEC8010E943F
:10239000380CCDCFCF93DF93E5EBF3E013821282BD
:1023A00088EE93E0A0E0B0E084839583A683B783B2
:1023B00026E731E03183208325EC30E03587248720
:1023C00024EC30E03787268720EC30E0318B208BFF
:1023D00021EC30E0338B228B22EC30E0358B248BE8
:1023E00026EC30E0378B268B118E128E138E148ED6
:1023F000E2E5F4E01382128284839583A683B78397
:1024000088E891E091838083EEE5F4E016821782FC
:1024100010861186128613861486158616861786F0
:10242000108A118A128A138A148A158AC9EDD4E097
:102430001B821A828AE991E0998388831F82188619
:1024400080ED97E0A0E0B0E0888B998BAA8BBB8BE6
:1024500086E290E0A0E0B0E08C8B9D8BAE8BBF8BD2
:102460001C861D861E861F861B860E94F503688FAC
:10247000798F8A8F9B8F1C8E1D8E1E8E1F8E80EBF8
:1024800091E09983888318A21AA219A2E4EAF4E0E1
:1024900014AA13AA12AADF91CF910895BB274A303C
:1024A00031F4992322F4BDE2909581959F4F0C94CD
:1024B0007C12BB27FA01A62F6217710581059105D1
:1024C000330B30FB66F0AA27660F771F881F991F12
:1024D000AA1FA21710F0A21B63953850A9F7A05DA0
:1024E000AA3308F0A95DA19336F7B111B193108218
:1024F000CA010C949512BB27FB015527AA27880F08
:10250000991FAA1FA41710F0A41B83955051B9F767
:10251000A05DAA3308F0A95DA193009779F7B111E6
:10252000B1931192CB010C949512DC01FC01672F41
:1025300071917723E1F7329704C07C916D9370839A
:102540006291AE17BF07C8F30895A1E21A2EAA1B25
:10255000BB1BFD010DC0AA1FBB1FEE1FFF1FA21753
:10256000B307E407F50720F0A21BB30BE40BF50B50
:10257000661F771F881F991F1A9469F760957095D9
:10258000809590959B01AC01BD01CF0108952F92DC
:102590003F924F925F926F927F928F929F92AF92F3
:1025A000BF92CF92DF92EF92FF920F931F93CF9340
:1025B000DF93CDB7DEB7CA1BDB0B0FB6F894DEBFD7
:1025C0000FBECDBF09942A88398848885F846E84FD
:1025D0007D848C849B84AA84B984C884DF80EE8047
:1025E000FD800C811B81AA81B981CE0FD11D0FB650
:1025F000F894DEBF0FBECDBFED010895EE0FFF1FB3
:102600000590F491E02D09940F931F93CF93DF93DE
:102610008230910510F482E090E0E0910905F0919C
:102620000A0520E030E0A0E0B0E0309719F14081E9
:1026300051810281138148175907C8F08417950703
:1026400069F4109731F012960C93129713961C931D
:1026500027C00093090510930A0522C021153105F2
:1026600019F04217530718F49A01BD01EF01DF0179
:10267000F801DBCF21153105F9F0281B390B243087
:10268000310580F48A819B816115710521F0FB0180
:102690009383828304C090930A0580930905FE0109
:1026A000329644C0FE01E20FF31F819391932250B2
:1026B0003109398328833AC02091070530910805F4
:1026C000232B41F4209132013091330130930805DE
:1026D00020930705209130013091310121153105FA
:1026E00041F42DB73EB74091340150913501241B80
:1026F000350BE0910705F0910805E217F307A0F408
:102700002E1B3F0B2817390778F0AC014E5F5F4F47
:102710002417350748F04E0F5F1F5093080540936C
:1027200007058193919302C0E0E0F0E0CF01DF91D3
:10273000CF911F910F910895CF93DF93009709F4E4
:1027400081C0FC01329713821282A0910905B091D9
:102750000A05109781F420813181820F931F209107
:102760000705309108052817390751F5F09308053A
:10277000E093070567C0ED0120E030E0CE17DF07EA
:1027800040F44A815B819E0141155105F1F0EA0157
:10279000F5CFD383C28340815181840F951FC81721
:1027A000D90759F488819981840F951F02969183E6
:1027B00080838A819B81938382832115310529F44B
:1027C000F0930A05E09309053DC0E901FB83EA8324
:1027D00049915991C40FD51FEC17FD0761F4808111
:1027E0009181840F951F0296E901998388838281E4
:1027F00093819B838A83E0E0F0E012968D919C9117
:102800001397009719F0FD01DC01F7CF8D919C9192
:1028100011979D012E5F3F4F820F931F2091070557
:10282000309108052817390769F4309729F4109278
:102830000A051092090502C013821282B09308059E
:10284000A0930705DF91CF910895A0E0B0E0EBE2FF
:10285000F4E10C94CB12EC01009721F4CB010E941F
:102860000413B4C0FC01E60FF71F9C01225031098C
:10287000E217F30708F4A8C0D9010D911C91119734
:1028800006171707B0F00530110508F49BC0C80102
:1028900004978617970708F495C002501109061B84
:1028A000170B019311936D937C93CF010E949C139E
:1028B00089C05B01A01AB10A4C01800E911EA09143
:1028C0000905B0910A05612C712CE12CF12C1097AF
:1028D00009F446C08D919C911197A815B905B1F5E1
:1028E0006C0142E0C40ED11CCA14DB0478F14C0127
:1028F0008A189B08640142E0C40ED11C1296BC9059
:1029000012971396AC91B5E0CB16D10440F0B28289
:10291000A38391828082D9016D937C9309C00E5F5D
:102920001F4F800F911FF90191838083EB2DFA2FA8
:10293000E114F10431F0D7011396FC93EE93129752
:1029400041C0F0930A05E09309053CC0681679067A
:1029500008F43C017D0112960D90BC91A02DB7CFDB
:10296000809107059091080588169906E1F466168E
:102970007706C8F48091300190913101009741F4BD
:102980008DB79EB74091340150913501841B950B52
:10299000E817F907C8F4F0930805E0930705F90173
:1029A000718360830FC0CB010E9404137C010097E8
:1029B00059F0A801BE010E94F014CE010E949C13A0
:1029C000C70104C0CE0102C080E090E0CDB7DEB701
:1029D000EEE00C94E71281E090E0F8940C9400157E
:1029E000FB01DC0102C001900D9241505040D8F72C
:1029F0000895FB01DC0101900D920020E1F708959C
:042A0000F894FFCF78
:102A04000404041C00000000040404070000000087
:102A14000000001C0404040400000007040404046F
:102A24000000001F00000000040404040404040463
:102A340000000B05800003020202020202020202ED
:102A440002020202020202020204012020202020CB
:102A540020202020202020202020202020010502CA
:102A64000202020202020202020202020202020242
:102A7400020600000000DE084B0875082B09A608B2
:102A840084089808000000005F013201D000430868
:102A94002A01160107010000000063064B08D0005C
:102AA4008E01D000CD005709CA00CA000000000002
:102AB40063064B08D0008E01FB011A041705C701F9
:102AC400CA0048656C6C6F00546865726500564DA9
:102AD4004450565F317C315F564D4450560A00567F
:102AE4004D4450525F00536B657463683A20202054
:102AF40000473A5C4D792044726976655C50726F88
:102B04006A656374735C4C434454656D70436F6EC3
:102B140074726F6C6C65725C4C434454656D7043A5
:102B24006F6E74726F6C6C65725C4C434454656D6B
:102B340070436F6E74726F6C6C65722E696E6F0089
:102B440055706C6F616465643A20004E6F76203175
:102B540037203230323200202D205363686564758B
:102B64006C657220002E0020446F6E6500636C65F6
:102B7400616E757072657175697265642100312EBC
:102B8400636C65616E7570212066756E63436F7545
:102B94006E743A00322E636C65616E757021206626
:102BA400756E63436F756E743A0020434D3A00208E
:102BB4004C433A000D0A00312E66756E63436F75FF
:102BC4006E74203A0074686973206964783A0072FC
:102BD400656D6F76696E67206964783A00322E6697
:0C2BE400756E63436F756E74203A00003C
:107E0000112484B714BE81FFF0D085E080938100F7
:107E100082E08093C00088E18093C10086E0809377
:107E2000C20080E18093C4008EE0C9D0259A86E02C
:107E300020E33CEF91E0309385002093840096BBD3
:107E4000B09BFECF1D9AA8958150A9F7CC24DD24C4
:107E500088248394B5E0AB2EA1E19A2EF3E0BF2EE7
:107E6000A2D0813461F49FD0082FAFD0023811F036
:107E7000013811F484E001C083E08DD089C08234E0
:107E800011F484E103C0853419F485E0A6D080C0E4
:107E9000853579F488D0E82EFF2485D0082F10E0AE
:107EA000102F00270E291F29000F111F8ED06801E7
:107EB0006FC0863521F484E090D080E0DECF843638
:107EC00009F040C070D06FD0082F6DD080E0C81688
:107ED00080E7D80618F4F601B7BEE895C0E0D1E017
:107EE00062D089930C17E1F7F0E0CF16F0E7DF06D8
:107EF00018F0F601B7BEE89568D007B600FCFDCFD4
:107F0000A601A0E0B1E02C9130E011968C91119780
:107F100090E0982F8827822B932B1296FA010C0160
:107F200087BEE89511244E5F5F4FF1E0A038BF0790
:107F300051F7F601A7BEE89507B600FCFDCF97BE46
:107F4000E89526C08437B1F42ED02DD0F82E2BD052
:107F50003CD0F601EF2C8F010F5F1F4F84911BD097
:107F6000EA94F801C1F70894C11CD11CFA94CF0C13
:107F7000D11C0EC0853739F428D08EE10CD085E9AC
:107F80000AD08FE07ACF813511F488E018D01DD067
:107F900080E101D065CF982F8091C00085FFFCCF94
:107FA0009093C60008958091C00087FFFCCF809118
:107FB000C00084FD01C0A8958091C6000895E0E648
:107FC000F0E098E1908380830895EDDF803219F02E
:107FD00088E0F5DFFFCF84E1DECF1F93182FE3DFCA
:107FE0001150E9F7F2DF1F91089580E0E8DFEE27F6
:047FF000FF270994CA
:027FFE00040479
:0400000300007E007B
:00000001FF